{
    "contractName": "SimpleStorage",
    "abi": [
        {
            "inputs": [
                {
                    "internalType": "string",
                    "name": "_name",
                    "type": "string"
                },
                {
                    "internalType": "uint256",
                    "name": "_favoriteNumber",
                    "type": "uint256"
                }
            ],
            "name": "addPerson",
            "outputs": [],
            "stateMutability": "nonpayable",
            "type": "function"
        },
        {
            "inputs": [
                {
                    "internalType": "uint256",
                    "name": "",
                    "type": "uint256"
                }
            ],
            "name": "listOfPeople",
            "outputs": [
                {
                    "internalType": "uint256",
                    "name": "favoriteNumber",
                    "type": "uint256"
                },
                {
                    "internalType": "string",
                    "name": "name",
                    "type": "string"
                }
            ],
            "stateMutability": "view",
            "type": "function"
        },
        {
            "inputs": [],
            "name": "myFavoriteNumber",
            "outputs": [
                {
                    "internalType": "uint256",
                    "name": "",
                    "type": "uint256"
                }
            ],
            "stateMutability": "view",
            "type": "function"
        },
        {
            "inputs": [
                {
                    "internalType": "string",
                    "name": "",
                    "type": "string"
                }
            ],
            "name": "nameToFavoriteNumber",
            "outputs": [
                {
                    "internalType": "uint256",
                    "name": "",
                    "type": "uint256"
                }
            ],
            "stateMutability": "view",
            "type": "function"
        },
        {
            "inputs": [],
            "name": "retrieve",
            "outputs": [
                {
                    "internalType": "uint256",
                    "name": "",
                    "type": "uint256"
                }
            ],
            "stateMutability": "view",
            "type": "function"
        },
        {
            "inputs": [
                {
                    "internalType": "uint256",
                    "name": "_favoriteNumber",
                    "type": "uint256"
                }
            ],
            "name": "store",
            "outputs": [],
            "stateMutability": "nonpayable",
            "type": "function"
        },
        {
            "inputs": [
                {
                    "internalType": "string",
                    "name": "_name",
                    "type": "string"
                }
            ],
            "name": "viewThePerson",
            "outputs": [
                {
                    "internalType": "uint256",
                    "name": "",
                    "type": "uint256"
                }
            ],
            "stateMutability": "view",
            "type": "function"
        }
    ],
    "bytecode": "60808060405234601557610502908161001a8239f35b5f80fdfe60806040526004361015610011575f80fd5b5f3560e01c8063016480e0146100665780632e64cec1146102a45780632ebce631146102d85780636057361d146102c05780636d83bc57146102a45780636f760f41146100c057638bab8dd514610066575f80fd5b346100bc5760203660031901126100bc5760043567ffffffffffffffff81116100bc5760208061009b819336906004016103f2565b604051928184925191829101835e8101600281520301902054604051908152f35b5f80fd5b346100bc5760403660031901126100bc5760043567ffffffffffffffff81116100bc576100f19036906004016103f2565b602435604051916040830183811067ffffffffffffffff82111761027d5760405281835260208301928184526001546801000000000000000081101561027d578060016101419201600155610448565b6102915760019151815501925192835167ffffffffffffffff811161027d5761016a8254610494565b601f8111610238575b50602094601f82116001146101cf57908060209596869594935f926101c4575b50508160011b915f199060031b1c19161790555b604051928184925191829101835e81016002815203019020555f80f35b015190508780610193565b94601f19821690835f52805f20915f5b8181106102205750918391602097988897969560019510610208575b505050811b0190556101a7565b01515f1960f88460031b161c191690558780806101fb565b9192602060018192868c0151815501940192016101df565b825f5260205f20601f830160051c81019160208410610273575b601f0160051c01905b8181106102685750610173565b5f815560010161025b565b9091508190610252565b634e487b7160e01b5f52604160045260245ffd5b634e487b7160e01b5f525f60045260245ffd5b346100bc575f3660031901126100bc5760205f54604051908152f35b346100bc5760203660031901126100bc576004355f55005b346100bc5760203660031901126100bc576004356001548110156100bc576102ff90610448565b5060018154910190604051905f9280549061031982610494565b9081855260208501926001811690815f146103b35750600114610379575b5050610348836060949503856103d0565b6040519384928352604060208401525180918160408501528484015e5f828201840152601f01601f19168101030190f35b9094505f5260205f205f905b85821061039d57508301602001935061034883610337565b6001816020925483858901015201910190610385565b60ff191684525050151560051b8301602001935061034883610337565b90601f8019910116810190811067ffffffffffffffff82111761027d57604052565b81601f820112156100bc5780359067ffffffffffffffff821161027d5760405192610427601f8401601f1916602001856103d0565b828452602083830101116100bc57815f926020809301838601378301015290565b6001548110156104805760015f81815291901b7fb10e2d527612073b26eecdfd717e6a320cf44b4afac2b0732d9fcbe2b7fa0cf60191565b634e487b7160e01b5f52603260045260245ffd5b90600182811c921680156104c2575b60208310146104ae57565b634e487b7160e01b5f52602260045260245ffd5b91607f16916104a356fea2646970667358221220f24227f26230efd717fc10a6b32a7d2a140a628cae7c6a67d8a6ce85552c0d0764736f6c634300081d0033",
    "sourcePath": "/root/folder/Foundry/simplestorage/src/simpleStorage.sol",
    "compiler": {
        "name": "solc",
        "version": "0.8.29+commit.ab55807c"
    },
    "functionHashes": {
        "addPerson(string,uint256)": "6f760f41",
        "listOfPeople(uint256)": "2ebce631",
        "myFavoriteNumber()": "6d83bc57",
        "nameToFavoriteNumber(string)": "8bab8dd5",
        "retrieve()": "2e64cec1",
        "store(uint256)": "6057361d",
        "viewThePerson(string)": "016480e0"
    },
    "gasEstimates": {
        "creation": {
            "codeDepositCost": "256400",
            "executionCost": "306",
            "totalCost": "256706"
        },
        "external": {
            "addPerson(string,uint256)": "infinite",
            "listOfPeople(uint256)": "infinite",
            "myFavoriteNumber()": "2335",
            "nameToFavoriteNumber(string)": "infinite",
            "retrieve()": "2269",
            "store(uint256)": "22296",
            "viewThePerson(string)": "infinite"
        }
    }
}